:020000040000FA
:040000001BEF00F002
:060008005F823FEF14F0DF
:100018005F80E0CF50F1F0A014EF00F016EF00F091
:1000280017EF00F0F09050C1E0FF5F90100028EF4C
:0200380026F0B0
:10080000005469656D706F282773293A2000566F70
:100810006C74616A653A2000252E326600494E46A6
:10082000004E414E00696E66006E616E006C66009F
:10083000256900560000000E00017B6F000E7A6FE4
:1008400041C08CF042C08DF043C08EF044C08FF0A8
:100850008FBF2FEF04F02DEF04F045EF04F0000EF2
:100860007B6F010E7A6F8CC001F08DC002F08EC0DC
:1008700003F08FC004F00FEC27F001C08CF002C031
:100880008DF003C08EF004C08FF0000E0001936F56
:10089000000E926FF2C07FF0F3C080F07A517B11AE
:1008A000D8A455EF04F057EF04F05EEF04F05DA418
:1008B0005CEF04F05EEF04F078EF04F07A517B1106
:1008C000D8A465EF04F067EF04F06DEF04F0000EBC
:1008D000656F2B0E646F71EF04F0000E656F2D0EC7
:1008E000646F64C000F1924B932B7F07D8A0800700
:1008F0008CC001F08DC002F08EC003F08FC004F0F8
:100900005DEC1FF001040210D8A489EF04F08BEF16
:1009100004F0E2EF04F0BF0E466EFF0E476E455046
:10092000486E496A465048264750492249500AE1D4
:100930001A0E485CD8A09FEF04F0A2EF04F0010E5D
:10094000A3EF04F0000E0001666F676B665167113C
:10095000D8B4ADEF04F0AFEF04F0BDEF04F0000E3B
:100960009225056E010E9321066E1D0E076E080E70
:10097000086EA8EC25F0C9EF04F0000E9225056E74
:10098000010E9321066E250E076E080E086EA8EC68
:1009900025F00001FD0E7F27FF0E80233FC011F0E0
:1009A00040C012F0000E136E010E146E7FC015F0E1
:1009B00080C016F048EC22F011C03FF012C040F0A9
:1009C000F3EF09F08CC001F08DC002F08EC003F08F
:1009D0008FC004F05DEC1FF001500210D8A4F3EFBB
:1009E00004F0F5EF04F035EF05F0BF0E466EFF0E94
:1009F000476E4550486E496A46504826475049223E
:100A000049500AE11A0E485CD8A009EF05F00CEF36
:100A100005F0010E0DEF05F0000E0001686F696B27
:100A200068516911D8B417EF05F019EF05F027EFF9
:100A300005F0000E9225056E010E9321066E210E23
:100A4000076E080E086EA8EC25F0C9EF04F0000E42
:100A50009225056E010E9321066E290E076E080E73
:100A6000086EA8EC25F0C9EF04F0000E0001946FA9
:100A7000000E956F800E966F3F0E976F000E916F70
:100A8000000E906F8CC001F08DC002F08EC003F09C
:100A90008FC004F0000E056E000E066E000E076E8D
:100AA000000E086E59EC23F0D8B059EF05F05BEF5B
:100AB00005F0DEEF05F07AEF05F094C01AF095C06E
:100AC0001BF096C01CF097C01DF0000E1E6E000EAD
:100AD0001F6E200E206E410E216EEDEC0EF01AC03E
:100AE00094F01BC095F01CC096F01DC097F000015B
:100AF000904B912B8CC033F08DC034F08EC035F00C
:100B00008FC036F0000E1E6E000E1F6E200E206E7F
:100B1000410E216E94C01AF095C01BF096C01CF0D7
:100B200097C01DF0EDEC0EF01AC037F01BC038F086
:100B30001CC039F01DC03AF0DBEC1EF0D8B0A3EFBA
:100B400005F0A5EF05F05DEF05F0C5EF05F094C0E9
:100B500001F095C002F096C003F097C004F0000EBB
:100B6000056E000E066E200E076E410E086E02EC3A
:100B700011F001C094F002C095F003C096F004C0DB
:100B800097F000019007D8A091078CC033F08DC07A
:100B900034F08EC035F08FC036F094C037F095C079
:100BA00038F096C039F097C03AF0DBEC1EF0D8A0D0
:100BB000DCEF05F0DEEF05F0A7EF05F045C007F02C
:100BC000086A78EC25F007500001816F81C07EF043
:100BD000670E8119D8A4EFEF05F0F1EF05F017EFDC
:100BE00006F0F451F511D8A4F8EF05F0FAEF05F08E
:100BF000FEEF05F0000EF56F010EF46FF5BF0BEF81
:100C000006F0F55106E1F405D8B009EF06F00BEF58
:100C100006F011EF06F0000E7D6F060E7C6F20EFE0
:100C200006F0F4C07CF0F5C07DF020EF06F0F5BFD3
:100C30001CEF06F01EEF06F00BEF06F011EF06F0CA
:100C4000670E8119D8A427EF06F029EF06F058EFB8
:100C500006F091AF37EF06F0FC0E905DFF0E915954
:100C6000D8A035EF06F037EF06F056EF06F0FF0E8E
:100C7000466EFF0E476E7CC048F07DC049F046507E
:100C80004826475049229051485C4950800A4A6E94
:100C90009151800A4A58D8A050EF06F052EF06F062
:100CA00056EF06F0660E7E6F58EF06F0650E7E6F0B
:100CB0007CC074F07DC075F0670E8119D8A463EF15
:100CC00006F065EF06F075EF06F0660E7E19D8A403
:100CD0006CEF06F06EEF06F077EF06F091BF75EF60
:100CE00006F073EF06F077EF06F0744B752B660E87
:100CF0007E19D8A47EEF06F080EF06F0A0EF06F094
:100D000091BF87EF06F085EF06F093EF06F0000E37
:100D1000946F000E956F800E966F3F0E976F000ECA
:100D2000916F000E906F670E8119D8B49AEF06F09C
:100D30009CEF06F0A0EF06F09051742791517523B7
:100D4000000E8B6F000E8A6F8CC082F08DC083F016
:100D50008EC084F08FC085F094C060F095C061F0C3
:100D600096C062F097C063F031EF07F082C001F0E7
:100D700083C002F084C003F085C004F094C005F085
:100D800095C006F096C007F097C008F002EC11F08D
:100D900001C01AF002C01BF003C01CF004C01DF01B
:100DA000BBEC16F01AC086F01BC087F01CC088F0A0
:100DB0001DC089F086C033F087C034F088C035F09C
:100DC00089C036F058EC1EF033C078F034C079F0AA
:100DD00082C033F083C034F084C035F085C036F073
:100DE00094C01EF095C01FF096C020F097C021F06F
:100DF00086C01AF087C01BF088C01CF089C01DF0A7
:100E0000EDEC0EF01AC037F01BC038F01CC039F002
:100E10001DC03AF070EC26F033C082F034C083F08D
:100E200035C084F036C085F094C001F095C002F062
:100E300096C003F097C004F0000E056E000E066E1B
:100E4000200E076E410E086E02EC11F001C094F006
:100E500002C095F003C096F004C097F000018A4BE1
:100E60008B2B74518A5D8B51800A466E7551800AB6
:100E70004658D8A03EEF07F040EF07F0B6EF06F077
:100E800094C01AF095C01BF096C01CF097C01DF0DE
:100E9000000E1E6E000E1F6EA00E206E400E216E04
:100EA000EDEC0EF01AC086F01BC087F01CC088F075
:100EB0001DC089F082C033F083C034F084C035F0A7
:100EC00085C036F086C037F087C038F088C039F06A
:100ED00089C03AF0DBEC1EF0D8B071EF07F073EF89
:100EE00007F07EEF07F0000E0001866F000E876F9F
:100EF000000E886F000E896FA7EF07F082C001F027
:100F000083C002F084C003F085C004F086C005F001
:100F100087C006F088C007F089C008F059EC23F0BC
:100F2000D8A095EF07F097EF07F0A7EF07F00001C3
:100F300078B19DEF07F09FEF07F0A7EF07F0000EE5
:100F4000866F000E876F000E886F000E896F8CC051
:100F500001F08DC002F08EC003F08FC004F086C097
:100F600005F087C006F088C007F089C008F08DEC56
:100F70000CF001C082F002C083F003C084F004C012
:100F800085F060C094F061C095F062C096F063C0D7
:100F900097F0650E00017E19D8B4D1EF07F0D3EFBA
:100FA00007F0D9EF07F090C076F091C077F0DDEF51
:100FB00007F0000E776F000E766F000E736F000E55
:100FC000726F000E716F000E706F000E8B6F000E4F
:100FD0008A6FD9EF08F082C001F083C002F084C0AC
:100FE00003F085C004F094C005F095C006F096C0EB
:100FF00007F097C008F002EC11F001C01AF002C02F
:101000001BF003C01CF004C01DF0BBEC16F01AC0AE
:1010100086F01BC087F01CC088F01DC089F086C018
:1010200033F087C034F088C035F089C036F058EC12
:101030001EF033C078F034C079F05DB822EF08F0CC
:1010400024EF08F042EF08F0000178517911D8A49C
:101050002CEF08F02EEF08F042EF08F0670E811930
:10106000D8A435EF08F037EF08F042EF08F077BF6B
:101070003EEF08F03CEF08F042EF08F0704B712BA8
:101080008DEF08F0000172517311D8A44AEF08F0F7
:101090004CEF08F076EF08F077BF53EF08F051EF10
:1010A00008F076EF08F0000E9225D96E010E93211C
:1010B000DA6E2E0EDF6E924B932B7F07D8A080073F
:1010C000000E736F010E726F76EF08F0000E92251E
:1010D000D96E010E9321DA6E300EDF6E924B932B98
:1010E0007F07D8A080077007D8A0710770517111D1
:1010F000D8A47DEF08F07FEF08F066EF08F0000E4F
:101100009225D96E010E9321DA6E7851300FDF6E81
:10111000924B932B7F07D8A0800782C033F083C007
:1011200034F084C035F085C036F094C01EF095C010
:101130001FF096C020F097C021F086C01AF087C03B
:101140001BF088C01CF089C01DF0EDEC0EF01AC039
:1011500037F01BC038F01CC039F01DC03AF070ECFD
:1011600026F033C082F034C083F035C084F036C03E
:1011700085F094C001F095C002F096C003F097C0CE
:1011800004F0000E056E000E066E200E076E410E76
:10119000086E02EC11F001C094F002C095F003C09B
:1011A00096F004C097F000017607D8A077078A4B25
:1011B0008B2B74518A5D8B51800A466E7551800A63
:1011C0004658D8B0E6EF08F0E8EF08F0F6EF08F080
:1011D00093BFF4EF08F0935109E14B0E925DD8A054
:1011E000F4EF08F0F6EF08F0EBEF07F0725173112F
:1011F000D8A4FDEF08F0FFEF08F010EF09F05DA8AC
:1012000004EF09F006EF09F010EF09F0000E922547
:10121000D96E010E9321DA6E2E0EDF6E924B932B58
:10122000000E9225D96E010E9321DA6E000EDF6E4C
:10123000650E7E19D8A41FEF09F021EF09F0CEEF5B
:1012400004F0000E8B6F4F0E8A6F000E8A25D96E48
:10125000010E8B21DA6E000EDF6E000E7B6F000E2A
:101260007A6F91BF38EF09F036EF09F040EF09F0DF
:10127000000E7B6F010E7A6F906D911FD8B0912B8D
:10128000000E7D6F020E7C6F71EF09F08A07D8A007
:101290008B07000E8A25D96E010E8B21DA6E90C065
:1012A00001F091C002F0000E046E0A0E036E01EC14
:1012B00023F00150300FDF6E90C001F091C002F0BA
:1012C000000E046E0A0E036EE6EC21F001C090F0F1
:1012D00002C091F000017C07D8A07D077F07D8A04D
:1012E000800790519111D8A478EF09F07AEF09F0B6
:1012F00046EF09F07DBF87EF09F07D5106E17C05DF
:10130000D8B085EF09F087EF09F046EF09F08A07BA
:10131000D8A08B077A517B11D8A491EF09F093EFF5
:1013200009F099EF09F0000E6B6F2B0E6A6F9DEFBD
:1013300009F0000E6B6F2D0E6A6F000E8A25D96EB4
:10134000010E8B21DA6E6AC0DFFF7F07D8A080070D
:101350008A07D8A08B07BF0E466EFF0E476E45501A
:10136000486E496A465048264750492249500AE18A
:101370001A0E485CD8A0BFEF09F0C2EF09F0010EC9
:10138000C3EF09F0000E6E6F6F6B6E516F11D8A432
:10139000CCEF09F0CEEF09F0D4EF09F0000E6D6F3D
:1013A000650E6C6FD8EF09F0000E6D6F450E6C6F17
:1013B000000E8A25D96E010E8B21DA6E6CC0DFFF1C
:1013C0007F07D8A08007000E9225056E010E93219D
:1013D000066E000E8A25076E010E8B21086EA8ECA2
:1013E00025F0CEEF04F012004DC0D9FF4EC0DAFF59
:1013F000DECFF6FFDDCFF7FF0800F550250AD8A4B1
:1014000004EF0AF006EF0AF071EF0CF04DC0D9FFBF
:101410004EC0DAFFDE2A000EDD22000E0001F36F5F
:10142000000EF26FF2C05DF0F3C05EF0F469F56992
:101430004DC0D9FF4EC0DAFFDECFF6FFDDCFF7FF9C
:101440000800F5502E0AD8A428EF0AF02AEF0AF077
:10145000A8EF0AF0000EF56F000EF46F4DC0D9FF33
:101460004EC0DAFFDE2A000EDD224DC0D9FF4EC08D
:10147000DAFFDECFF6FFDDCFF7FF0800F5502A0ACE
:10148000D8A445EF0AF047EF0AF064EF0AF04DC028
:10149000D9FF4EC0DAFFDE2A000EDD224FC0D9FF91
:1014A00050C0DAFFDFCF51F0020EDE26DFCF52F060
:1014B000000EDD2251C0D9FF52C0DAFFDECFF4F0BA
:1014C000DDCFF5F0A8EF0AF04DC0D9FF4EC0DAFF2E
:1014D000DECF08F0DDCF09F09EEC18F008C0F4F084
:1014E00009C0F5F07BEF0AF04DC0D9FF4EC0DAFF1E
:1014F000DE2A000EDD22D00E516EFF0E526E4DC060
:10150000D9FF4EC0DAFFDECFF6FFDDCFF7FF0800D0
:10151000F550536E546A5150532652505422545031
:101520000AE10A0E535CD8A098EF0AF09BEF0AF08C
:10153000010E9CEF0AF0000E0001A06FA16BA051FC
:10154000A111D8A4A6EF0AF0A8EF0AF074EF0AF0F0
:101550004DC0D9FF4EC0DAFFDECFF6FFDDCFF7FF7B
:101560000800F550076E086A78EC25F00750000176
:10157000A86FA851D8B4BFEF0AF0C1EF0AF0FBEF93
:101580000AF04DC0D9FF4EC0DAFFDECF51F0DDCFFB
:1015900052F0010E5126000E522251C0F6FF52C0E9
:1015A000F7FF0800F550076E086A78EC25F0075041
:1015B0000001A96FA951D8B4E0EF0AF0E2EF0AF0F8
:1015C000FBEF0AF04DC0D9FF4EC0DAFFDECF51F07D
:1015D000DDCF52F0020E5126000E522251C0F6FF0E
:1015E00052C0F7FF0800F550076E086A78EC25F046
:1015F00007500001AA6F4DC0D9FF4EC0DAFFDECF01
:10160000F6FFDDCFF7FF0800F550640AD8B40BEF02
:101610000BF00DEF0BF01FEF0BF04DC0D9FF4EC0DC
:10162000DAFFDECFF6FFDDCFF7FF0800F550690ADD
:10163000D8A41DEF0BF01FEF0BF05FEF0BF04DC0C8
:10164000D9FF4EC0DAFFDE2A000EDD224FC0D9FFDF
:1016500050C0DAFFDFCF51F0020EDE26DFCF52F0AE
:10166000000EDD2251C0D9FF52C0DAFFDECF98F064
:10167000DDCF99F0000E99BFFF0E9A6F9B6F9C6FA4
:101680009D6F9E6F9F6F4BC01CF04CC01DF098C0AB
:101690001EF099C01FF09AC020F09BC021F09CC0A2
:1016A00022F09DC023F09EC024F09FC025F0CFEC17
:1016B00012F01CC04BF01DC04CF08CEF0CF0660E0D
:1016C000A819D8A466EF0BF068EF0BF0A8EF0BF0A9
:1016D0004DC0D9FF4EC0DAFFDECFF6FFDDCFF7FFFA
:1016E0000800F5CFABF04DC0D9FF4EC0DAFFDE2ABF
:1016F000000EDD224FC0D9FF50C0DAFFDFCF51F01E
:10170000040EDE26DFCF52F0000EDD2251C0D9FFDD
:1017100052C0DAFFDECFA4F0DECFA5F0DECFA6F018
:10172000DECFA7F04BC03FF04CC040F0A4C041F06A
:10173000A5C042F0A6C043F0A7C044F0ABC045F03E
:101740001BEC04F03FC04BF040C04CF08CEF0CF0B1
:10175000A80E016E000E026E2D0E036E080E046EB2
:10176000000E066E020E056E4DEC20F001500210C8
:10177000D8A4BDEF0BF0BFEF0BF03BEF0CF04DC06A
:10178000D9FF4EC0DAFFDECF51F0DDCF52F0010EAF
:101790005126000E522251C0F6FF52C0F7FF08003A
:1017A000F5CFABF0BF0E516EFF0E526E4DC0D9FF9C
:1017B0004EC0DAFFDECFF6FFDDCFF7FF0800F550B1
:1017C000536E546A515053265250542254500AE1D9
:1017D0001A0E535CD8A0EFEF0BF0F2EF0BF0010EF6
:1017E000F3EF0BF0000E0001A26FA36BA251A31147
:1017F000D8B4FDEF0BF0FFEF0BF019EF0CF04FC07A
:10180000D9FF50C0DAFFDFCF51F0040EDE26DFCF64
:1018100052F0000EDD2251C0D9FF52C0DAFFDECFF8
:10182000A4F0DECFA5F0DECFA6F0DECFA7F031EF3B
:101830000CF04FC0D9FF50C0DAFFDFCF51F0040EDB
:10184000DE26DFCF52F0000EDD2251C0D9FF52C09C
:10185000DAFFDECFA4F0DECFA5F0DECFA6F0DECF3C
:10186000A7F0020E4DC0D9FF4EC0DAFFDE26000EF3
:10187000DD2292EF0BF04DC0D9FF4EC0DAFFDECF74
:10188000F6FFDDCFF7FF0800F550250AD8A44BEF8F
:101890000CF04DEF0CF064EF0CF04DC0D9FF4EC0D2
:1018A000DAFFDE2A000EDD22000E026E250E016E2A
:1018B0004BC003F04CC004F01EEC21F0000E4C6E47
:1018C000010E4B6E8CEF0CF04DC0D9FF4EC0DAFF0D
:1018D000DE2A000EDD22000E4C6E000E4B6E8CEFE9
:1018E0000CF04DC0D9FF4EC0DAFFDECFF6FFDDCFE2
:1018F000F7FF0800F550016E026A4BC003F04CC0C0
:1019000004F01EEC21F04DC0D9FF4EC0DAFFDE2AF4
:10191000000EDD225EEF0CF012000450800B0D6E05
:10192000045004240F6E03AE98EF0CF09AEF0CF005
:101930009BEF0CF00F800F50D8B4A1EF0CF0A3EF89
:101940000CF0B8EF0CF00F28D8A4A9EF0CF0ABEF17
:101950000CF0B3EF0CF0000E016E000E026E000EE4
:10196000036E000E046E038E000E046EC0EF0CF0CA
:10197000000E016E000E026E000E036E000E046E6D
:101980000850800B0E6E0D500E18D8B4CAEF0CF034
:10199000CCEF0CF0CDEF0CF00D8C085008240E6E3F
:1019A00007AED5EF0CF0D7EF0CF0D8EF0CF00E80AF
:1019B0000E50D8B4DEEF0CF0E0EF0CF0F5EF0CF0C9
:1019C0000E28D8A4E6EF0CF0E8EF0CF0F0EF0CF0E6
:1019D000000E056E000E066E000E076E000E086EFD
:1019E000078E000E086EFDEF0CF0000E056E000E67
:1019F000066E000E076E000E086E0F500E5CD8B01B
:101A000004EF0DF006EF0DF02DEF0DF00DAC0BEF28
:101A10000DF00DEF0DF00FEF0DF0800E0D1A0FC051
:101A200010F00EC00FF010C00EF001C010F005C095
:101A300001F010C005F002C010F006C002F010C0A6
:101A400006F003C010F007C003F010C007F004C098
:101A500010F008C004F010C008F0000E106E0F5017
:101A60000EC009F00A6A095E000E0A5A0ABE42EF69
:101A70000DF00A5009E11A0E095CD8A042EF0DF0F2
:101A800044EF0DF07BEF0DF0015002100310041035
:101A9000D8A44DEF0DF050EF0DF0010E51EF0DF009
:101AA000000E106E000E016E000E026E000E036E30
:101AB000000E046E0EC00FF084EF0DF010A063EF67
:101AC0000DF065EF0DF06BEF0DF0D89010300109BF
:101AD000106E6DEF0DF0D890103201A072EF0DF086
:101AE00074EF0DF075EF0DF0108E043404320332F4
:101AF000023201320F2A0E500F5CD8A082EF0DF097
:101B000084EF0DF05EEF0DF00DBC89EF0DF08BEF63
:101B10000DF0CBEF0DF00F50D8A491EF0DF093EF37
:101B20000DF09DEF0DF0000E016E000E026E000E26
:101B3000036E000E046EECEF0EF005500126065009
:101B40000222075003220850042204A0AAEF0DF03D
:101B5000ACEF0DF058EF0EF010A0B1EF0DF0B3EFB9
:101B60000DF0B9EF0DF0D89010300109106EBBEFF9
:101B70000DF0D890103201A0C0EF0DF0C2EF0DF0C3
:101B8000C3EF0DF0108E04340432033202320132FE
:101B90000F2A58EF0EF00550015C0650025807500E
:101BA00003580450800A096E0850800A0958D8B0BA
:101BB000DCEF0DF0DEEF0DF009EF0EF00150055CEB
:101BC000096E025006580A6E035007580B6E0450F7
:101BD00008580C6EFF0E0924016EFF0E0A20026EDB
:101BE000FF0E0B20036EFF0E0C20046E800E0D1AEC
:101BF000106C1050D8A4FFEF0DF001EF0EF011EFB4
:101C00000EF0010E0126000E02220322042211EF23
:101C10000EF00550015E0650025A0750035A085054
:101C2000045A0150021003100410D8A41AEF0EF049
:101C30001CEF0EF051EF0EF01050D8A422EF0EF072
:101C400024EF0EF051EF0EF0000E016E000E026E4A
:101C5000000E036E000E046EECEF0EF0D89001360D
:101C600002360336043610AE38EF0EF03AEF0EF0BF
:101C70003BEF0EF0018010A040EF0EF042EF0EF0AF
:101C800046EF0EF0D880103648EF0EF0D8901036A0
:101C90000F50D8B44EEF0EF050EF0EF051EF0EF0A3
:101CA0000F0603AE56EF0EF058EF0EF02EEF0EF0CB
:101CB000000E0E6E10AE5FEF0EF061EF0EF079EFDA
:101CC0000EF010C009F07F0E0916D8B46AEF0EF0BE
:101CD0006CEF0EF070EF0EF0010E0E6E79EF0EF05D
:101CE00001A075EF0EF077EF0EF079EF0EF06CEFCC
:101CF0000EF00E50D8B47FEF0EF081EF0EF0ACEF87
:101D00000EF0010E0126000E02220322042204A07E
:101D10008CEF0EF08EEF0EF0ACEF0EF001C009F07C
:101D200002C00AF003C00BF004C00CF00C340C32FB
:101D30000B320A32093209C001F00AC002F00BC0AE
:101D400003F00CC004F00F28D8B4A9EF0EF0ABEFED
:101D50000EF0ACEF0EF00F2A0F28D8B4B2EF0EF051
:101D6000B4EF0EF0BCEF0EF00F50D8A4BAEF0EF0A7
:101D7000BCEF0EF0CEEF0EF0000E016E000E026E04
:101D8000000E036E000E046E0F50D8A4CAEF0EF0C2
:101D9000CCEF0EF0CEEF0EF0000E0D6E0FA0D3EFD5
:101DA0000EF0D5EF0EF0D8EF0EF0038ED9EF0EF057
:101DB000039ED8900F30046E0DAEE1EF0EF0E3EF0E
:101DC0000EF0E4EF0EF0048E01C001F002C002F04C
:101DD00003C003F004C004F012001D50800B266EF7
:101DE0001D501D242C6E1CAEF8EF0EF0FAEF0EF015
:101DF000FBEF0EF02C802C50D8B401EF0FF003EF66
:101E00000FF016EF0FF02C28D8A409EF0FF00BEF0E
:101E10000FF013EF0FF0000E1A6E000E1B6E000E87
:101E20001C6E000E1D6E1C8E1EEF0FF0000E1A6E43
:101E3000000E1B6E000E1C6E000E1D6E2150800BDE
:101E4000261A215021242B6E20AE29EF0FF02BEF04
:101E50000FF02CEF0FF02B802B50D8B432EF0FF097
:101E600034EF0FF047EF0FF02B28D8A43AEF0FF024
:101E70003CEF0FF044EF0FF0000E1E6E000E1F6ED1
:101E8000000E206E000E216E208E4FEF0FF0000E20
:101E90001E6E000E1F6E000E206E000E216E2B5067
:101EA000D8B455EF0FF057EF0FF05FEF0FF02C5055
:101EB000D8A45DEF0FF05FEF0FF069EF0FF0000EA9
:101EC0001A6E000E1B6E000E1C6E000E1D6E01EFD2
:101ED00011F020501A02F3CF31F0F4CF32F031502C
:101EE000276E286A296A2A6A32502D6E2E6A2F6A56
:101EF000306A1F501B02F3CF31F0F4CF32F0315073
:101F00002726000E282229222A2232502D26000EB2
:101F10002E222F2230221E501C02F3CF31F0F4CF9C
:101F200032F031502726000E282229222A22325050
:101F30002D26000E2E222F22302229C02AF028C062
:101F400029F027C028F0276A1E501B02F3CF31F07A
:101F5000F4CF32F03150272632502822000E2922A9
:101F6000000E2A221F501A02F3CF31F0F4CF32F0C4
:101F70003150272632502822000E2922000E2A2214
:101F800029C02AF028C029F027C028F0276A1E504F
:101F90001A02F3CF31F0F4CF32F03150272632500D
:101FA0002822000E2922000E2A2220501B02F3CFE5
:101FB00031F0F4CF32F031502D2632502E22000E67
:101FC0002F22000E30221F501C02F3CF31F0F4CF2D
:101FD00032F031502D2632502E22000E2F22000ECC
:101FE000302220501C02F3CF31F0F4CF32F03150C8
:101FF000226E3250236E246A256A24C025F023C045
:1020000024F022C023F0226A22502D2623502E22B3
:1020100024502F222550302227C022F028C023F040
:1020200029C024F02AC025F0190E1CEF10F0D8901A
:102030002532243223322232E82E17EF10F02250BC
:102040002D2623502E2224502F222550302229C005
:102050002AF028C029F027C028F0276A2B502CC06E
:1020600022F0236A2226000E2322820E2224316EC1
:10207000FF0E2320326E52EF10F0D8902D362E3600
:102080002F3630362AAE47EF10F049EF10F04AEF06
:1020900010F02D80D8902736283629362A3631067A
:1020A000D8A032062FAE57EF10F059EF10F03DEFE9
:1020B00010F0000E2B6E2AAE60EF10F062EF10F001
:1020C00086EF10F0FF0E2714226EFF0E2814236EE9
:1020D000FF0E2914246E7F0E2A14256E2250231021
:1020E00024102510D8B477EF10F079EF10F07DEFC1
:1020F00010F0010E2B6E86EF10F02DA082EF10F085
:1021000084EF10F086EF10F079EF10F02B50D8B478
:102110008CEF10F08EEF10F0B2EF10F0010E2D26C4
:10212000000E2E222F22302230A099EF10F09BEFCC
:1021300010F0B2EF10F02DC022F02EC023F02FC00F
:1021400024F030C025F025342532243223322232C7
:1021500022C02DF023C02EF024C02FF025C030F077
:10216000314A322A32BEBDEF10F0325008E1312838
:10217000D8A0BDEF10F0BFEF10F0C9EF10F0000EC7
:102180002D6E000E2E6E800E2F6E7F0E306EF7EFCE
:1021900010F032BED6EF10F0325006E13104D8B064
:1021A000D4EF10F0D6EF10F0E2EF10F0000E2D6E2D
:1021B000000E2E6E000E2F6E000E306E000E266E7C
:1021C000F7EF10F031C02CF0FF0E2D16FF0E2E167B
:1021D0007F0E2F16000E30162CA0F1EF10F0F3EF4B
:1021E00010F0F4EF10F02F8ED8902C30306E265077
:1021F00030122DC01AF02EC01BF02FC01CF030C0C2
:102200001DF012000450800B116E04500424186E4F
:1022100003AE0DEF11F00FEF11F010EF11F0188079
:102220001850D8B416EF11F018EF11F02DEF11F08F
:102230001828D8A41EEF11F020EF11F028EF11F0AC
:10224000000E016E000E026E000E036E000E046E94
:10225000038E000E046E35EF11F0000E016E000EBD
:10226000026E000E036E000E046E0850800B111AF1
:1022700008500824196E07AE40EF11F042EF11F03C
:1022800043EF11F019801950D8B449EF11F04BEF1A
:1022900011F060EF11F01928D8A451EF11F053EFAD
:1022A00011F05BEF11F0000E056E000E066E000ED1
:1022B000076E000E086E078E000E086E68EF11F0B4
:1022C000000E056E000E066E000E076E000E086E04
:1022D0000550061007100810D8A471EF11F073EF25
:1022E00011F08BEF11F0000E016E000E026E000E69
:1022F000036E000E046E800E03127F0E0412115046
:10230000041201C001F002C002F003C003F004C0D7
:1023100004F0CEEF12F01850D8A491EF11F093EF23
:1023200011F09DEF11F0000E016E000E026E000E16
:10233000036E000E046ECEEF12F0195018C009F0B3
:102340000A6A095E000E0A5A7F0E0924126E000EF8
:102350000A20136E01C00DF002C00EF003C00FF092
:1023600004C010F0000E016E000E026E000E036E2F
:10237000000E046E000E146E000E156E000E166E2A
:10238000000E176E000E196EFEEF11F01950D8B442
:10239000CCEF11F0CEEF11F0E5EF11F0D8900D3643
:1023A0000E360F361036D890013602360336043614
:1023B00017AEDDEF11F0DFEF11F0E0EF11F001806B
:1023C000D890143615361636173605500D5C065063
:1023D0000E5807500F5808501058D8A0F2EF11F0BF
:1023E000F4EF11F0FDEF11F0178C05500D5E065063
:1023F0000E5A07500F5A0850105A192A190E19640C
:1024000004EF12F006EF12F0C6EF11F00D500E10AF
:102410000F101010D8B40FEF12F011EF12F029EFD7
:1024200012F0148029EF12F0D890013602360336EC
:10243000043617AE1EEF12F020EF12F021EF12F06B
:102440000180D89014361536163617361206D8A0E5
:10245000130603AE2EEF12F030EF12F014EF12F06D
:10246000000E196E17AE37EF12F039EF12F05DEF74
:1024700012F0FF0E1414096EFF0E15140A6EFF0EF3
:1024800016140B6E7F0E17140C6E09500A100B10E9
:102490000C10D8B44EEF12F050EF12F054EF12F0CF
:1024A000010E196E5DEF12F001A059EF12F05BEF13
:1024B00012F05DEF12F050EF12F01950D8B463EF44
:1024C00012F065EF12F089EF12F0010E0126000EF6
:1024D00002220322042204A070EF12F072EF12F025
:1024E00089EF12F001C009F002C00AF003C00BF03E
:1024F00004C00CF00C340C320B320A32093209C021
:1025000001F00AC002F00BC003F00CC004F0124A44
:10251000132A13BE94EF12F0135008E11228D8A02A
:1025200094EF12F096EF12F0A1EF12F0000E136E7E
:102530001268000E016E000E026E000E036E000E99
:10254000046E13BEAEEF12F0135006E11204D8B0C1
:10255000ACEF12F0AEEF12F0BCEF12F0000E136E03
:10256000000E126E000E016E000E026E000E036E63
:10257000000E046E000E116E12C018F018A0C3EF0A
:1025800012F0C5EF12F0C8EF12F0038EC9EF12F08F
:10259000039ED8901830046E7FEF11F012001EC019
:1025A00036F01FC037F020C038F021C039F022C00B
:1025B0003AF023C03BF024C03CF025C03DF03DBEC6
:1025C000E4EF12F0E7EF12F0010EE8EF12F0000E68
:1025D000346E356A34503510D8B4F1EF12F0F3EFA1
:1025E00012F003EF13F03D1E3C1E3B1E3A1E391E37
:1025F000381E371E366C000E3722382239223A2216
:102600003B223C223D220001F5BF09EF13F00BEF06
:1026100013F00CEF13F05D92F5BF19EF13F0F551C5
:1026200006E1F405D8B017EF13F019EF13F01FEF20
:1026300013F0000E316E010E306E23EF13F0F4C074
:1026400030F0F5C031F0F2C032F0F3C033F0345066
:102650003510D8A42EEF13F030EF13F037EF13F04E
:102660005DA435EF13F037EF13F03AEF13F03206B5
:10267000D8A03306000E3F6E4F0E3E6E000E0101D5
:102680004F6FBFEF13F03E06D8A03F06000E3E246A
:10269000D96E010E3F20DA6E36C001F037C002F06D
:1026A00038C003F039C004F03AC005F03BC006F072
:1026B0003CC007F03DC008F00A0E096E000E0A6E1D
:1026C000000E0B6E000E0C6E000E0D6E000E0E6EE8
:1026D000000E0F6E000E106E2AEC1AF001C026F0EC
:1026E00002C027F003C028F004C029F005C02AF07A
:1026F00006C02BF007C02CF008C02DF026C013F048
:1027000028C014F0B5EC26F01350300FDF6E300601
:10271000D8A031063206D8A0330636C001F037C043
:1027200002F038C003F039C004F03AC005F03BC0F5
:1027300006F03CC007F03DC008F00A0E096E000E1E
:102740000A6E000E0B6E000E0C6E000E0D6E000E6B
:102750000E6E000E0F6E000E106E66EC19F001C0CA
:1027600036F002C037F003C038F004C039F005C0BD
:102770003AF006C03BF007C03CF008C03DF03FBE59
:10278000CAEF13F03F5008E13E04D8A0CAEF13F09F
:10279000CCEF13F0FCEF13F036503710381039102F
:1027A0003A103B103C103D10D8A4D9EF13F0DBEFEA
:1027B00013F043EF13F031BEE8EF13F0315006E1B0
:1027C0003004D8B0E6EF13F0E8EF13F043EF13F066
:1027D00033BEF3EF13F0335008E13204D8A0F3EF27
:1027E00013F0F5EF13F0FCEF13F05DB2FAEF13F016
:1027F000FCEF13F043EF13F034503510D8A403EF7F
:1028000014F005EF14F00CEF14F05DA40AEF14F0CF
:102810000CEF14F02AEF14F03E06D8A03F06345017
:102820003510D8A416EF14F018EF14F01EEF14F0C2
:10283000000E2F6E2B0E2E6E22EF14F0000E2F6E58
:102840002D0E2E6E000E3E24D96E010E3F20DA6E44
:102850002EC0DFFF1CC011F01DC012F0000E3E2480
:10286000136E010E3F20146E32C015F033C016F007
:1028700048EC22F011C01CF012C01DF01200E1CF94
:10288000C0F0E2CFC1F0D9CFC2F0DACFC3F0F3CFBE
:10289000C4F0F4CFC5F0F6CFC6F0F7CFC7F0F8CF4D
:1028A000C8F0F5CFC9F0000E0001E36F000EE26F33
:1028B000010EE225E26F000EE321E36FF2A263EF67
:1028C00014F065EF14F084EF15F0010EF825F86FA1
:1028D000000EF921F96F020EF819F911D8A473EF5F
:1028E00014F075EF14F08BEF14F0010EA1EC1CF056
:1028F000000E026E000E016E020E036E78EC27F0E1
:10290000000E026E000E016EC4EC27F00001BE6FD7
:10291000BE51F66FF76B000EE16F000EE06F000E18
:10292000FB6F000EFA6F000E806E000E816E000EBF
:10293000026E050E016E53EC24F001C0DEF002C001
:10294000DFF0DEC001F0DFC002F0000E02BEFF0EBD
:10295000036E046E010EC4EC17F001C01AF002C041
:102960001BF003C01CF004C01DF00A0E1E6E280EE2
:102970001F6EA00E206E3B0E216EEDEC0EF01AC005
:10298000E4F01BC0E5F01CC0E6F01DC0E7F0D40E7B
:102990000001AC6F000EAD6F180EAE6F080EAF6F7A
:1029A000E4C0B0F0E5C0B1F0E6C0B2F0E7C0B3F00B
:1029B000D6EC25F0D40E0F6E000E106E330E116E95
:1029C000080E126E8EEC27F0000E046E0E0E056ED1
:1029D000080E066E010EB8EC20F00B0E046ED40E3D
:1029E000056E000E066E010EB8EC20F0000E046EAF
:1029F000010E056E080E066E020E01EC24F0000EAC
:102A00001E6E000E1F6EC80E206E420E216E000E4E
:102A1000056E000E066EA00E076E400E086EE4C036
:102A200001F0E5C002F0E6C003F0E7C004F002ECFC
:102A300011F001C01AF002C01BF003C01CF004C06A
:102A40001DF0EDEC0EF01AC033F01BC034F01CC0CA
:102A500035F01DC036F058EC1EF033C0FAF034C02B
:102A6000FBF0CA0E0001AC6F000EAD6F300EAE6F02
:102A7000080EAF6FFAC0B0F0FBC0B1F0D6EC25F095
:102A80000B0E046ECA0E056E000E066E020EB8EC3A
:102A900020F0820E0001BE6FDD0EE82EFED7BE2FA5
:102AA000FCD700D0020E0001F619F711D8A45BEF95
:102AB00015F05DEF15F060EF15F0FF007AEF15F0FF
:102AC00081A065EF15F067EF15F07AEF15F0030EB2
:102AD0000001BF6F8A0EBE6F550EE82EFED7BE2FC7
:102AE000FCD7BF2FFAD700D0000E0001E16F010E16
:102AF000E06FF2920001E051E111D8B482EF15F0DD
:102B000084EF15F06BEF14F0C9C0F5FFC8C0F8FFF3
:102B1000C7C0F7FFC6C0F6FFC5C0F4FFC4C0F3FFCF
:102B2000C3C0DAFFC2C0D9FFC1C0E2FFC0C0E1FF2D
:102B30005F9211009492000E0F015D6F000E010173
:102B4000676F010E666F000E6A6F090E6B6F3D0EA8
:102B50006C6F000E6D6F6AC151F16BC152F16CC1A7
:102B600053F16DC154F160C155F161C156F1576B1C
:102B7000586BAEEC23F051C16AF152C16BF153C1F5
:102B80006CF154C16DF16AC162F16BC163F16CC14A
:102B900064F16DC165F1030ED4EF15F00101D89019
:102BA0006533643363336233E82ECEEF15F062C1D0
:102BB0006AF163C16BF164C16CF165C16DF1000E26
:102BC000BA6E0DEF16F066C162F167C163F1D8907D
:102BD00062376337D8906237633762C166F163C189
:102BE00067F1BA2A6AC162F16BC163F16CC164F129
:102BF0006DC165F1030E02EF16F0D89065336433B2
:102C000063336233E82EFDEF15F062C16AF163C1F0
:102C10006BF164C16CF165C16DF16D516C1108E12E
:102C20006A05010E6B59D8B018EF16F01AEF16F0BE
:102C3000E3EF15F06A07000E6B5B6C5B6D5B6AC1BE
:102C4000BBFF6AC16EF16BC16FF16CC170F16DC1F8
:102C500071F1010E6E27000E6F23702371235EC188
:102C600051F15FC152F1536B546B6EC155F16FC19D
:102C700056F170C157F171C158F1DCEC24F051C12B
:102C80006EF152C16FF153C170F154C171F16EC157
:102C900062F16FC163F170C164F171C165F1020E3F
:102CA000D89001016237633764376537E82E50EFFB
:102CB00016F062C16EF163C16FF164C170F165C15C
:102CC00071F16EC151F16FC152F170C153F171C117
:102CD00054F1640E556F000E566F000E576F000EC4
:102CE000586FAEEC23F051C16EF152C16FF153C178
:102CF00070F154C171F16EC168F16FC169F1030ED9
:102D000001016815686F696B68C162F169C163F19F
:102D1000623B633BF00E631762510F0B6313F00EBF
:102D2000621762C168F163C169F10C0E976E97502A
:102D30006811976E6EC162F16FC163F170C164F189
:102D400071C165F1030EAAEF16F0D89065336433B4
:102D500063336233E82EA5EF16F062C16EF163C1F2
:102D60006FF164C170F165C171F16EC190FFBA84F9
:102D7000000EBC6E1200E8C02AF0E9C02BF0EAC0D9
:102D80002CF0EBC02DF01AC02AF01BC02BF01CC099
:102D90002CF01DC02DF0810E1E6EFF0E1F6E2AC07E
:102DA00020F02BC021F02CC022F02DC023F0180EF3
:102DB000DFEF16F0D8902332223221322032E82E73
:102DC000DAEF16F020501E24286E000E1F20296E08
:102DD00029BEF4EF16F0295009E1170E285CD8A09F
:102DE000F4EF16F0F6EF16F000EF17F01AC01AF035
:102DF0001BC01BF01CC01CF01DC01DF0C3EF17F062
:102E000029BE05EF17F007EF17F077EF17F028C08E
:102E10001EF0FF0E1F6EFF0E206E7F0E216E000E45
:102E2000226E1E6616EF17F01EEF17F022342232C4
:102E3000213220321F321E2E11EF17F01FC024F056
:102E400020C025F021C026F022C027F024502A14EB
:102E50001E6E25502B141F6E26502C14206E2750EA
:102E60002D14216E1E501F1020102110D8A43BEFEE
:102E700017F03DEF17F03FEF17F0F6EF16F02AC00E
:102E80001EF02BC01FF02CC020F02DC021F0200E12
:102E90004FEF17F0D890213220321F321E32E82E29
:102EA0004AEF17F01E501F1020102110D8B45BEF0E
:102EB00017F05DEF17F065EF17F024502A26255024
:102EC0002B2226502C2227502D22241C1E6E251C1E
:102ED0001F6E261C206E271C216E1E502A161F50A6
:102EE0002B1620502C1621502D16BBEF17F02AC0A0
:102EF0001EF02BC01FF02CC020F02DC021F0200EA2
:102F000087EF17F0D890213220321F321E32E82E80
:102F100082EF17F01E501F1020102110D8A493EF3D
:102F200017F095EF17F09FEF17F0000E2A6E000EC6
:102F30002B6E000E2C6E000E2D6EBBEF17F0D8908E
:102F40002A341E6E2B341F6E2C34206E2D34216ECD
:102F50001E501F1020102110D8B4B1EF17F0B3EF9E
:102F600017F0BBEF17F0000E2A6E000E2B6E800ECE
:102F70002C6EBF0E2D6E2AC01AF02BC01BF02CC079
:102F80001CF02DC01DF01200096E0950D8B4CBEF13
:102F900017F0CDEF17F0EFEF17F004BED4EF17F0F6
:102FA000D2EF17F0EFEF17F001C005F002C006F006
:102FB00003C007F004C008F0051E061E071E081E09
:102FC000052A000E06220722082205C00BF006C0C3
:102FD0000CF007C00DF008C00EF0F7EF17F001C0BD
:102FE0000BF002C00CF003C00DF004C00EF0015055
:102FF000021003100410D8A400EF18F002EF18F02C
:103000000CEF18F0000E016E000E026E000E036E43
:10301000000E046E9DEF18F0960E0A6E16EF18F073
:103020000A2AD8900E320D320C320B32000E0B14DD
:10303000056E000E0C14066E000E0D14076EFE0ECB
:103040000E14086E0550061007100810D8A42BEFB8
:1030500018F02DEF18F010EF18F03BEF18F00A2AD7
:10306000010E0B26000E0C220D220E22D8900E32DD
:103070000D320C320B32000E0B14056E000E0C14C8
:10308000066E000E0D14076EFF0E0E14086E05502E
:10309000061007100810D8A450EF18F052EF18F0DF
:1030A0002FEF18F05AEF18F00A06D8900B360C36AE
:1030B0000D360E360DBE5FEF18F061EF18F069EFB8
:1030C00018F0020E0A6067EF18F069EF18F054EF7D
:1030D00018F00AB06EEF18F070EF18F071EF18F0FA
:1030E0000D9ED8900A320AC005F0066A076A086A7F
:1030F00005C008F0076A066A056A05500B120650FB
:103100000C1207500D1208500E120950D8B48BEF54
:1031100018F08DEF18F095EF18F004BE94EF18F04A
:1031200092EF18F095EF18F00E8E0BC001F00CC066
:1031300002F00DC003F00EC004F01200000E166E77
:10314000000E156E000E0F6E000E0E6EAAEF18F038
:10315000084A092A010E146E08C0F6FF09C0F7FFDD
:103160000800F550200AD8B4B8EF18F0BAEF18F0FC
:10317000D7EF18F0F70E0A6EFF0E0B6E08C0F6FFC1
:1031800009C0F7FF0800F5500C6E0D6A0A500C26B6
:103190000B500D220D5009E1050E0C5CD8A0D3EFA9
:1031A00018F0D5EF18F0D7EF18F0000E146E14C019
:1031B00010F0116A10501110D8A4E1EF18F0E3EFED
:1031C00018F0A8EF18F0EDEF18F0000E0F6E010EDA
:1031D0000E6E084A092A22EF19F008C0F6FF09C04E
:1031E000F7FF0800F5500A6E0B6A0B50000AD8B4BE
:1031F000FCEF18F022EF19F00A502B0AD8B4E9EFCF
:1032000018F0060AD8B4E5EF18F022EF19F015C04F
:1032100001F016C002F0000E046E0A0E036EA1EC5F
:1032200027F008C0F6FF09C0F7FF0800F550015E5F
:10323000000E025A300E0124156E000E0220166E8A
:10324000E9EF18F0D00E0A6EFF0E0B6E08C0F6FF05
:1032500009C0F7FF0800F5500C6E0D6A0A500C26E5
:103260000B500D220D500AE10A0E0C5CD8A03BEF6A
:1032700019F03EEF19F0010E3FEF19F0000E126E3B
:10328000136A12501310D8A448EF19F04AEF19F03E
:1032900007EF19F00E500F10D8A451EF19F053EFAB
:1032A00019F061EF19F015C00AF016C00BF00A1EF4
:1032B0000B1E0A4A0B2A0AC008F00BC009F065EF82
:1032C00019F015C008F016C009F01200000E126EB9
:1032D00010BE6FEF19F06DEF19F081EF19F0101EAD
:1032E0000F1E0E1E0D1E0C1E0B1E0A1E096C000E5C
:1032F0000A220B220C220D220E220F221022010E76
:10330000126E08BE88EF19F086EF19F09AEF19F0E7
:10331000081E071E061E051E041E031E021E016C4B
:10332000000E02220322042205220622072208227E
:10333000010E121A20EE13F0070EDE6AE806FDE217
:1033400009500A100B100C100D100E100F10101059
:10335000D8B4ADEF19F0AFEF19F001EF1AF0010E8C
:10336000116EBDEF19F0D89009360A360B360C36BF
:103370000D360E360F361036112A10AEC2EF19F088
:10338000C4EF19F0B3EF19F0D89013361436153690
:1033900016361736183619361A360950015C0A5097
:1033A00002580B5003580C5004580D5005580E503D
:1033B00006580F50075810500858D8A0E2EF19F0DF
:1033C000E4EF19F0F5EF19F00950015E0A50025AC6
:1033D0000B50035A0C50045A0D50055A0E50065A01
:1033E0000F50075A1050085A1380D89010320F32DD
:1033F0000E320D320C320B320A320932112EC4EF6A
:1034000019F01250D8B407EF1AF009EF1AF019EFBB
:103410001AF01A1E191E181E171E161E151E141E2F
:10342000136C000E142215221622172218221922BC
:103430001A2213C001F014C002F015C003F016C028
:1034400004F017C005F018C006F019C007F01AC044
:1034500008F01200000E126E08BE33EF1AF031EFC2
:103460001AF045EF1AF0081E071E061E051E041E60
:10347000031E021E016C000E0222032204220522FA
:10348000062207220822010E126E10BE4CEF1AF01F
:103490004AEF1AF05CEF1AF0101E0F1E0E1E0D1EE2
:1034A0000C1E0B1E0A1E096C000E0A220B220C2297
:1034B0000D220E220F22102209500A100B100C10A0
:1034C0000D100E100F101010D8B469EF1AF06BEF3A
:1034D0001AF0B3EF1AF0010E116E79EF1AF0D890CE
:1034E00009360A360B360C360D360E360F361036C8
:1034F000112A10AE7EEF1AF080EF1AF06FEF1AF07B
:103500000950015C0A5002580B5003580C500458E3
:103510000D5005580E5006580F50075810500858B7
:10352000D8A095EF1AF097EF1AF0A7EF1AF009500C
:10353000015E0A50025A0B50035A0C50045A0D50A7
:10354000055A0E50065A0F50075A1050085AD89074
:1035500010320F320E320D320C320B320A32093277
:10356000112E80EF1AF01250D8B4B9EF1AF0BBEF59
:103570001AF0CBEF1AF0081E071E061E051E041EC9
:10358000031E021E016C000E0222032204220522E9
:1035900006220722082201C001F002C002F003C087
:1035A00003F004C004F005C005F006C006F007C033
:1035B00007F008C008F012000101536F8396839250
:1035C0000101516B53AF01D0512B010E51175133F3
:1035D0005133835051197F0B5119836E53C151F1EF
:1035E000060E526FD8905133522FF2EF1AF0010E9F
:1035F0005117513B5147514783505119BF0B511936
:10360000836E53C151F1050E526FD8905133522F32
:1036100005EF1BF0010E5117513B514783505119D3
:10362000DF0B5119836E53C151F1513B0F0E5117EE
:10363000010E5117513B83505119EF0B5119836EF5
:10364000030EE82EFED700F0838600D000D000F0F5
:10365000839653C151F10101D8905133D890513321
:10366000D8905133010E51175133513383505119B2
:103670007F0B5119836E53C151F1D8905133D890BB
:103680005133010E5117513B514751478350511946
:10369000BF0B5119836E53C151F1D8905133010EB4
:1036A0005117513B514783505119DF0B5119836E0C
:1036B00053C151F1010E5117513B83505119EF0B7A
:1036C0005119836E030EE82EFED700F0838600D0DA
:1036D00000D000F08396080E0101516F230EE82EF2
:1036E000FED7512FFCD71200036E83968382016AA6
:1036F00003AE01D0012A010E0116013201328350BE
:1037000001187F0B0118836E03C001F0060E026ED4
:10371000D8900132022E88EF1BF0010E0116013AFB
:103720000146014683500118BF0B0118836E03C088
:1037300001F0050E026ED8900132022E9BEF1BF0B5
:10374000010E0116013A014683500118DF0B0118E2
:10375000836E03C001F0013A0F0E0116010E01162F
:10376000013A83500118EF0B0118836E030EE82E07
:10377000FED700F0838600D000D000F0839603C00F
:1037800001F0D8900132D8900132D8900132010E68
:10379000011601320132835001187F0B0118836E2C
:1037A00003C001F0D8900132D8900132010E011609
:1037B000013A0146014683500118BF0B0118836E80
:1037C00003C001F0D8900132010E0116013A014602
:1037D00083500118DF0B0118836E03C001F0010E46
:1037E0000116013A83500118EF0B0118836E030E86
:1037F000E82EFED700F0838600D000D000F083963C
:1038000000D000D000F0080E016E230EE82EFED787
:10381000012EFCD700F01200000E0F015E6F959E86
:10382000959C959A9598959695929594839E839C50
:10383000839A8398839683928394080E0101546F30
:10384000230EE82EFED7542FFCD7080E0101546F2B
:10385000230EE82EFED7542FFCD7080E0101546F1B
:10386000230EE82EFED7542FFCD7080E0101546F0B
:10387000230EE82EFED7542FFCD7080E0101546FFB
:10388000230EE82EFED7542FFCD7080E0101546FEB
:10389000230EE82EFED7542FFCD7010E0101556FE1
:1038A000839E839C838A838883968392839E839C52
:1038B000838A83888386839200D000D000F0839E21
:1038C000839C838A838883968392080E0101546FB8
:1038D000230EE82EFED7542FFCD70101552B030EE3
:1038E000556575EF1CF077EF1CF050EF1CF0839ED0
:1038F000839C838A839883968392839E839C838A06
:1039000083988386839200D000D000F0839E839CAE
:10391000838A839883968392080E0101546F230E45
:10392000E82EFED7542FFCD7280EDCEC1AF0100E30
:10393000DCEC1AF0010EDCEC1AF00F0EDCEC1AF0E5
:103940001200036E83968392016A03AE01D0012AAE
:10395000010E011601320132835001187F0B01184C
:10396000836E03C001F0060E026ED8900132022E63
:10397000B5EF1CF0010E0116013A014601468350D5
:103980000118BF0B0118836E03C001F0050E026E13
:10399000D8900132022EC8EF1CF0010E0116013A38
:1039A000014683500118DF0B0118836E03C001F03C
:1039B000013A0F0E0116010E0116013A835001184B
:1039C000EF0B0118836E030EE82EFED700F08386FE
:1039D00000D000D000F0839603C001F0D8900132EF
:1039E000D8900132D8900132010E01160132013215
:1039F000835001187F0B0118836E03C001F0D8902B
:103A00000132D8900132010E0116013A01460146F9
:103A100083500118BF0B0118836E03C001F0D890CA
:103A20000132010E0116013A014683500118DF0BE5
:103A30000118836E03C001F0010E0116013A835094
:103A40000118EF0B0118836E030EE82EFED700F06D
:103A5000838600D000D000F08396080E016E230EFE
:103A6000E82EFED7012EFCD700F01200010151050F
:103A70005211D8A43EEF1DF040EF1DF044EF1DF0B1
:103A80007E0E806EC6EF1DF0020E51195211D8A4A1
:103A90004CEF1DF04EEF1DF052EF1DF0300E806E1A
:103AA000C6EF1DF0030E51195211D8A45AEF1DF0A4
:103AB0005CEF1DF060EF1DF06D0E806EC6EF1DF027
:103AC000040E51195211D8A468EF1DF06AEF1DF0D1
:103AD0006EEF1DF0790E806EC6EF1DF0050E5119C8
:103AE0005211D8A476EF1DF078EF1DF07CEF1DF099
:103AF000330E806EC6EF1DF0060E51195211D8A478
:103B000084EF1DF086EF1DF08AEF1DF05B0E806ED6
:103B1000C6EF1DF0070E51195211D8A492EF1DF0F7
:103B200094EF1DF098EF1DF05F0E806EC6EF1DF054
:103B3000080E51195211D8A4A0EF1DF0A2EF1DF0EC
:103B4000A6EF1DF0700E806EC6EF1DF0090E511924
:103B50005211D8A4AEEF1DF0B0EF1DF0B4EF1DF080
:103B60007F0E806EC6EF1DF00A0E51195211D8A4B7
:103B7000BCEF1DF0BEEF1DF0C6EF1DF0730E806EA2
:103B8000000E826F0A0E816FC6EF1DF01200010158
:103B900051055211D8A4CFEF1DF0D1EF1DF0D9EF90
:103BA0001DF0300E806E000E846F010E836F57EF94
:103BB0001EF0020E51195211D8A4E1EF1DF0E3EFEF
:103BC0001DF0E7EF1DF06D0E806E57EF1EF0030E37
:103BD00051195211D8A4EFEF1DF0F1EF1DF0F5EFE0
:103BE0001DF0790E806E57EF1EF0040E5119521120
:103BF000D8A4FDEF1DF0FFEF1DF003EF1EF0330E14
:103C0000806E57EF1EF0050E51195211D8A40BEF1C
:103C10001EF00DEF1EF011EF1EF05B0E806E57EFE1
:103C20001EF0060E51195211D8A419EF1EF01BEF09
:103C30001EF01FEF1EF05F0E806E57EF1EF0070E96
:103C400051195211D8A427EF1EF029EF1EF02DEFC5
:103C50001EF0700E806E57EF1EF0080E51195211B3
:103C6000D8A435EF1EF037EF1EF03BEF1EF07F0EAD
:103C7000806E57EF1EF0090E51195211D8A443EF70
:103C80001EF045EF1EF049EF1EF0730E806E57EFE9
:103C90001EF00A0E51195211D8A451EF1EF053EF25
:103CA0001EF057EF1EF07E0E806E57EF1EF01200D2
:103CB000353436343C6E3C50D8A461EF1EF063EFCF
:103CC0001EF06DEF1EF0000E336E000E346E000E0F
:103CD000356E000E366EDAEF1EF033C037F034C0AA
:103CE00038F035C039F036C03AF0200E7DEF1EF0C6
:103CF000D8903A32393238323732E82E78EF1EF027
:103D000037503B6E358EFF0E3316FF0E3416FF0E06
:103D10003516000E3616960E3C5E3CBE94EF1EF035
:103D200092EF1EF0AAEF1EF03C50800A970FD8B019
:103D30009CEF1EF09EEF1EF0A0EF1EF063EF1EF052
:103D4000D89036323532343233323C3EA0EF1EF05A
:103D5000C2EF1EF01F0E3C64B0EF1EF0B2EF1EF07B
:103D6000BAEF1EF063EF1EF0D89033363436353696
:103D700036363C063C50D8A4C0EF1EF0C2EF1EF011
:103D8000B4EF1EF03B50D8B4C8EF1EF0CAEF1EF0DF
:103D9000D2EF1EF0361E351E341E336C000E342258
:103DA0003522362233C033F034C034F035C035F01C
:103DB00036C036F01200000E33143B6E000E341481
:103DC0003C6E800E35143D6E7F0E36143E6E3B50B9
:103DD0003C103D103E10D8A4F0EF1EF0F2EF1EF0A4
:103DE000FAEF1EF0000E336E000E346E000E356ECC
:103DF000000E366E000E37143B6E000E38143C6E0B
:103E0000800E39143D6E7F0E3A143E6E3B503C10CE
:103E10003D103E10D8A40FEF1FF011EF1FF019EF67
:103E20001FF0000E376E000E386E000E396E000E59
:103E30003A6E36AE1EEF1FF020EF1FF029EF1FF095
:103E4000336C341ED8B0342A351ED8B0352A800ED3
:103E500036563AAE2EEF1FF030EF1FF039EF1FF05D
:103E6000376C381ED8B0382A391ED8B0392A800E9F
:103E70003A56000E331A000E341A000E351A800E10
:103E8000361A000E371A000E381A000E391A800E34
:103E90003A1A3750335C38503458395035583A5004
:103EA0003658D8B056EF1FF058EF1FF05BEF1FF0F9
:103EB000D8905CEF1FF0D8801200ECC00BF0EDC082
:103EC0000CF0EEC00DF0EFC00EF001C00BF002C020
:103ED0000CF003C00DF004C00EF00BC005F00CC0D8
:103EE00006F00DC007F00EC008F0180E7DEF1FF0B1
:103EF000D8900832073206320532E82E78EF1FF0EC
:103F00000550096E0A6A09500A10D8A48AEF1FF0FA
:103F10008CEF1FF0ACEF1FF0D8900B34056E0C3413
:103F2000066E0D34076E0E34086E0550061007102D
:103F30000810D8A49EEF1FF0A0EF1FF0A6EF1FF00F
:103F4000000E026E020E016EDBEF1FF0000E026E1D
:103F5000030E016EDBEF1FF009280A10D8A4B3EF9F
:103F60001FF0B5EF1FF0D7EF1FF00BC005F00CC02E
:103F700006F00DC007F00EC008F0090ED890053607
:103F8000063607360836E82EBEEF1FF0055006103D
:103F900007100810D8B4CFEF1FF0D2EF1FF0010EBA
:103FA000D3EF1FF0000E016E026ADBEF1FF0000E70
:103FB000026E040E016E1200000E01017F6F000EF2
:103FC0007E6F000E7D6F000E7C6F7EC15EF17FC143
:103FD0005FF178C160F179C161F19AEC15F07AC1B5
:103FE00051F17BC152F1D5EC26F0050E01017E2581
:103FF0007E6F000E7F217F6F7EC158F17FC159F126
:1040000012EC25F001017C4B7D2B7DBF11EF20F0E0
:104010007D5109E1140E7C5DD8A011EF20F013EF63
:1040200020F0E5EF1FF0000E7F6F690E7E6F000E2F
:10403000806E000E7D6F000E7C6FFB0E7E257E6F06
:10404000FF0E7F217F6F7EC15EF17FC15FF178C17E
:1040500060F179C161F19AEC15F07AC151F17BC13F
:1040600052F1D5EC26F07EC172F17FC173F183EC81
:1040700021F001017C4B7D2B7DBF48EF20F07D516D
:1040800009E1150E7C5DD8A048EF20F04AEF20F042
:104090001DEF20F0000E806E120001C008F002C07B
:1040A00009F003C00AF004C00BF00506D8A006060C
:1040B000052806E10628D8A460EF20F062EF20F082
:1040C0006FEF20F0000E026E000E016EB7EF20F0D1
:1040D000084A092A0A4A0B2A0506D8A0060608C07B
:1040E000D9FF09C0DAFFDF50D8B479EF20F07BEFB9
:1040F00020F0A6EF20F00AC0F6FF0BC0F7FF080083
:10410000F5500009D8B487EF20F089EF20F0A6EF32
:1041100020F005500610D8B490EF20F092EF20F078
:10412000A6EF20F008C0D9FF09C0DAFFDF50076E04
:104130000AC0F6FF0BC0F7FF0800F5500718D8B407
:10414000A4EF20F0A6EF20F068EF20F008C0D9FF20
:1041500009C0DAFFDF50076E0AC0F6FF0BC0F7FF99
:104160000800F550075C016E026AD8A00206120032
:10417000096ECFEF20F00450800F0A6EECEF20F0B4
:104180000450C00F0A6EECEF20F00450940F0A6E3A
:10419000ECEF20F00450D40F0A6EECEF20F0095041
:1041A000076E086A0850000AD8B4D9EF20F0ECEF87
:1041B00020F00750010AD8B4BBEF20F0030AD8B4AE
:1041C000C0EF20F0010AD8B4C5EF20F0070AD8B438
:1041D000CAEF20F0ECEF20F00A50A1EC1CF005EF44
:1041E00021F005C0F6FF06C0F7FFF86A070EF76476
:1041F00003D00800F55005D0F6CFE1FFF7CFE2FF7E
:10420000E75074EC1BF0054A062A05C0F6FF06C00D
:10421000F7FFF86A070EF76403D00800F55005D0E1
:10422000F6CFE1FFF7CFE2FFE7500009D8A41BEF7C
:1042300021F01DEF21F0F1EF20F0120003500410E7
:10424000D8B425EF21F027EF21F030EF21F0035013
:104250000410D8A42EEF21F030EF21F035EF21F03B
:104260000150CDEC27F082EF21F020EE04F0035056
:10427000D9260450DA22DE50DE10D8B442EF21F005
:1042800044EF21F05FEF21F020EE04F00350D92637
:104290000450DA2210EE02F00350E1260450E2222C
:1042A000DE50E65CE650800A096EDE50800A09584E
:1042B000D8B05DEF21F05FEF21F082EF21F020EE2A
:1042C00002F00350D9260450DA22DECF05F0DDCF0C
:1042D00006F003C0D9FF04C0DAFFDECF07F0DDCF60
:1042E00008F005500724D96E06500820DA6E01C088
:1042F000DFFF20EE02F00350D9260450DA22DE2A36
:10430000000EDD22120072C151F173C152F1000E94
:104310000101546F050E536FA1EC24F051C174F1EB
:1043200052C175F1010E01017415766F776B140E91
:1043300074197511D8A49FEF21F0A1EF21F0BAEF05
:1043400021F076517711D8A4A8EF21F0AAEF21F03F
:10435000BAEF21F07E0E806EF80E816E000E5F6F58
:10436000640E5E6F030E616FE80E606F9AEC15F0DD
:10437000E5EF21F0140E74197511D8B4C2EF21F0D5
:10438000C4EF21F0DAEF21F076057711D8A4CBEF56
:1043900021F0CDEF21F0DAEF21F0F00E816E8107F0
:1043A000D8A0820781C151F182C152F1C7EC1DF042
:1043B000E5EF21F076517711D8A4E1EF21F0E3EF9A
:1043C00021F0E5EF21F0000E816E1200000E066E66
:1043D00004BEEFEF21F0EDEF21F0F5EF21F0036CDB
:1043E000041ED8B0042A010E066E02BEFCEF21F0B6
:1043F000FAEF21F002EF22F0016C021ED8B0022A7F
:10440000010E061A000E086E000E076E035004100F
:10441000D8B40DEF22F00FEF22F037EF22F0010EAB
:10442000056E17EF22F0D89003360436052A04AE45
:104430001CEF22F01EEF22F013EF22F0D890073687
:1044400008360350015C04500258D8A02AEF22F02D
:104450002CEF22F031EF22F00350015E0450025A9B
:104460000780D89004320332052E1EEF22F006504A
:10447000D8B43DEF22F03FEF22F043EF22F0076C7B
:10448000081ED8B0082A07C001F008C002F01200C8
:104490005DA04DEF22F04FEF22F059EF22F013C054
:1044A0000AF014C00BF011C00CF012C00DF093EC28
:1044B00026F016BE5EEF22F060EF22F066EF22F0EB
:1044C00015C01AF016C01BF06AEF22F0000E1B6E2A
:1044D000000E1A6E000E196E000E186E7CEF22F0A0
:1044E000000E026E200E016E11C003F012C004F027
:1044F0001EEC21F0184A192A1A50185C1950800A2B
:10450000176E1B50800A1758D8A089EF22F08BEF46
:1045100022F070EF22F05DB090EF22F092EF22F0E7
:104520009CEF22F013C00AF014C00BF011C00CF085
:1045300012C00DF093EC26F013C001F014C002F08D
:1045400047EC27F01A500124116E1B500220126E06
:104550001200F288F086F19CF19AD08EF28EF28CE5
:104560004DEC26F0B4EC27F00CEC1CF0010EDCEC6A
:104570001AF00C0EDCEC1AF0000E0101526F000E66
:10458000516F000E536F62EC27F0000E0101526F65
:10459000000E516FBDEC27F00101806F80510001CA
:1045A000F66FF76B0001F805F911D8A4DAEF22F0E5
:1045B000DCEF22F0E9EF22F0030E0101796FE80E43
:1045C000786FFAC07AF1FBC07BF1DCEC1FF0D2EF20
:1045D00022F0F851F911D8A4F0EF22F0F2EF22F016
:1045E000D2EF22F0030E0101796FE80E786F000E12
:1045F0007B6F000E7A6FDCEC1FF0D2EF22F01BEF26
:1046000000F0000E066E02BE0AEF23F008EF23F062
:1046100010EF23F0016C021ED8B0022A010E066EC4
:1046200004BE17EF23F015EF23F01BEF23F0036C0C
:10463000041ED8B0042A03500410D8B422EF23F08B
:1046400024EF23F048EF23F0010E056E2CEF23F04A
:10465000D89003360436052A04AE31EF23F033EF49
:1046600023F028EF23F00350015C04500258D8A037
:104670003CEF23F03EEF23F042EF23F00350015EC6
:104680000450025AD89004320332052E33EF23F03F
:104690000650D8B44EEF23F050EF23F054EF23F040
:1046A000016C021ED8B0022A01C001F002C002F063
:1046B0001200000E0114096E000E02140A6E800E24
:1046C00003140B6E7F0E04140C6E09500A100B10AD
:1046D0000C10D8A46EEF23F070EF23F078EF23F0E6
:1046E000000E016E000E026E000E036E000E046ED0
:1046F000000E0514096E000E06140A6E800E0714D3
:104700000B6E7F0E08140C6E09500A100B100C1063
:10471000D8A48DEF23F08FEF23F097EF23F0000E56
:10472000056E000E066E000E076E000E086E055038
:1047300001180FE1065002180CE10750031809E1B7
:1047400008500418D8B4A7EF23F0A9EF23F0ACEF7A
:1047500023F0D890ADEF23F0D8801200000E0101B5
:10476000596F000E5A6F000E5B6F000E5C6F555153
:10477000561157115811D8B4C0EF23F0C2EF23F0EF
:10478000F8EF23F0010E5D6FCCEF23F0D890553792
:104790005637573758375D2B58AFD1EF23F0D3EF4B
:1047A00023F0C6EF23F0D89059375A375B375C3780
:1047B0005551515D565152595751535958515459A9
:1047C000D8A0E5EF23F0E7EF23F0F0EF23F0555109
:1047D000515F5651525B5751535B5851545B59814D
:1047E000D89058335733563355335D2FD3EF23F0DA
:1047F00059C151F15AC152F15BC153F15CC154F13D
:104800001200096E18EF24F00450800F0A6E35EF85
:1048100024F00450C00F0A6E35EF24F00450940FBA
:104820000A6E35EF24F00450D40F0A6E35EF24F0F1
:104830000950076E086A0850000AD8B422EF24F025
:1048400035EF24F00750010AD8B404EF24F0030A2E
:10485000D8B409EF24F0010AD8B40EEF24F0070A07
:10486000D8B413EF24F035EF24F00A50A1EC1CF07B
:1048700044EF24F005C0F6FF06C0F7FF0800F5502E
:1048800074EC1BF0054A062A05C0F6FF06C0F7FFC8
:104890000800F5500009D8A450EF24F052EF24F09E
:1048A0003AEF24F0120001C003F0D8900336D890FC
:1048B00003363C0E0316C250C30B0310C26EC2B2C5
:1048C00064EF24F068EF24F0036A032A69EF24F010
:1048D000036A010E046E032A70EF24F0D8900436A8
:1048E000032E6EEF24F0C2B078EF24F07CEF24F0BA
:1048F000056A052A7DEF24F0056A010E066E052A79
:1049000084EF24F0D8900636052E82EF24F006506E
:104910000410C212C2B28FEF24F091EF24F08AEF9C
:1049200024F0C350C4CF03F0046A03C004F0036A48
:104930000310076E0450086E07C001F008C002F0B3
:104940001200000E0101566F000E556F53515411A5
:10495000D8B4ADEF24F0AFEF24F0D7EF24F0010E80
:10496000576FB7EF24F0D89053375437572B54AFC5
:10497000BCEF24F0BEEF24F0B3EF24F0D89055370D
:1049800056375351515D54515259D8A0CAEF24F0B3
:10499000CCEF24F0D1EF24F05351515F5451525BCE
:1049A0005581D89054335333572FBEEF24F055C15F
:1049B00051F156C152F11200000E0101596F000E63
:1049C0005A6F000E5B6F000E5C6F51A1EAEF24F08E
:1049D000ECEF24F0F4EF24F05551592756515A23A7
:1049E00057515B2358515C23D8905537563757376A
:1049F0005837D890543353335233513351515211A5
:104A000053115411D8A407EF25F009EF25F0E5EF75
:104A100024F059C151F15AC152F15BC153F15CC14B
:104A200054F1120058C151F159C152F1000E010167
:104A3000546F050E536FA1EC24F051C15AF152C1CD
:104A40005BF1010E01015A155C6F5D6B5C055D1138
:104A5000D8A42DEF25F02FEF25F033EF25F0F00E41
:104A6000816E46EF25F05C515D11D8A43AEF25F038
:104A70003CEF25F046EF25F0000E816E834B842B32
:104A800083C151F184C152F136EC1DF0120057C0C0
:104A90005BF058C05CF0000E0001F16F000EF06F8B
:104AA00065EF25F055C04BF056C04CF05B0E4D6ED7
:104AB000000E4E6E59C04FF05AC050F0F4EC09F0A1
:104AC0004B500001F0274C50F1235BC0F6FF5CC057
:104AD000F7FF0800F5500009D8A471EF25F073EF37
:104AE00025F052EF25F0F0C055F0F1C056F012005D
:104AF000BF0E096EFF0E0A6E07C00BF008C00CF067
:104B000009500B260A500C220C500AE11A0E0B5CBD
:104B1000D8A08DEF25F090EF25F0010E91EF25F054
:104B2000000E0D6E0E6A0D500E10D8B49AEF25F0DF
:104B30009CEF25F0A3EF25F0200E0710076E08501C
:104B4000086EA7EF25F007C007F008C008F01200B4
:104B500007C00BF008C00CF005C00DF006C00EF049
:104B60000B50096E0C500A6E0B4A0C2A09C0F6FF56
:104B70000AC0F7FFF86A0DC0D9FF0EC0DAFF0D4A70
:104B80000E2A070EF76403D00800F55005D0F6CFC3
:104B9000E1FFF7CFE2FFE750DF6EDF50D8A4D3EF9D
:104BA00025F0D5EF25F0B0EF25F01200B00E000192
:104BB000B66F000EB76FACC0B8F0ADC0B9F0000E64
:104BC000BB6F000EBA6F000EBD6F000EBC6FB80E4B
:104BD000556E000E566EAEC057F0AFC058F0B60E10
:104BE000596E000E5A6E47EC25F00001BA51AC2503
:104BF000D96EBB51AD21DA6E000EDF6E1200010ED0
:104C0000076E200E01180210D8B409EF26F00BEF42
:104C100026F024EF26F0F70E036EFF0E046E01C09F
:104C200005F002C006F00350052604500622065087
:104C300009E1050E055CD8A020EF26F022EF26F052
:104C400024EF26F0000E076E07C001F0026A120082
:104C5000960EF66E4F0EF76E000EF86E01EE81F0B6
:104C600010EE04F00900F5CFEEFFE550E150FAE157
:104C700001EE00F0500EEE6AE806FDE100EEE8F00D
:104C8000140EEE6AE806FDE15E6A5D6A5F905F926F
:104C9000000EF86E0001A9EF22F0570ED36E000E41
:104CA000826E000E946E000E806E000E896E000EF5
:104CB0000F015B6F000E926E000E846E000E8D6E03
:104CC000000E5F6F000E966E000E816E000E8A6EF3
:104CD000000E5C6F000E936E000E836E8D901200BE
:104CE000000E371A000E381A000E391A800E3A1AC2
:104CF00033C001F034C002F035C003F036C004F018
:104D000037C005F038C006F039C007F03AC008F0E7
:104D10008DEC0CF001C033F002C034F003C035F06C
:104D200004C036F01200000E106E000E0F6EA4EFDD
:104D300026F00EC001F0026A0CC003F00DC004F0B2
:104D40001EEC21F00F4A102A0F500A24D96E105081
:104D50000B20DA6EDF500E6E0E50D8A4B2EF26F0A4
:104D6000B4EF26F099EF26F0120014BEC2EF26F041
:104D7000145006E11304D8B0C0EF26F0C2EF26F0BD
:104D8000D0EF26F013C015F014C016F0151E161E35
:104D9000154A162A15C013F016C014F0D4EF26F0E9
:104DA00013C013F014C014F01200E8EF26F0060E42
:104DB0000101546F130E536FAD0EE82EFED7532F23
:104DC000FCD7542FFAD700D001015107D8A05207C1
:104DD000010151515211D8A4F0EF26F0F2EF26F064
:104DE000D7EF26F01200BF0E036EFF0E046E01C057
:104DF00005F002C006F003500526045006220650B6
:104E00000AE11A0E055CD8A008EF27F00BEF27F097
:104E1000010E0CEF27F0000E016E026A1200015025
:104E2000021003100410D8B418EF27F01AEF27F07F
:104E300022EF27F0000E011A000E021A000E031ACC
:104E4000800E041A01C001F002C002F003C003F09A
:104E500004C004F01200D00E036EFF0E046E01C0F9
:104E600005F002C006F00350052604500622065045
:104E70000AE10A0E055CD8A040EF27F043EF27F0C7
:104E8000010E44EF27F0000E016E026A120001C00D
:104E900003F002C004F04FEF27F0014A022A01C0DC
:104EA000D9FF02C0DAFFDF50D8A459EF27F05BEF3B
:104EB00027F04DEF27F00350015C016E04500258BB
:104EC000026E120051C1A9FF53C1A8FFA69EA69C65
:104ED000A684550EA76EAA0EA76EA682A1A873EF90
:104EE00027F075EF27F06EEF27F0A198A694120037
:104EF00001C0A9FF03C0A8FFA69EA69CA684550ECC
:104F0000A76EAA0EA76EA682A1A889EF27F08BEF45
:104F100027F084EF27F0A198A69412000FC001F0AB
:104F200010C002F047EC27F001500F24056E02502C
:104F30001020066E11C007F012C008F0A8EC25F092
:104F4000120001500302F3CF05F0F4CF06F0015038
:104F50000402F350062602500302F350062605C051
:104F600001F006C002F012000E0EC16E920EC06E6D
:104F7000000EC46E000EC36E120051C1A9FFA69EA2
:104F8000A69CA650A850120001C0A9FFA69EA69CF0
:0C4F9000A650A85012000B0001001200F7
:020000040020DA
:08000000FFFFFFFFFFFFFFFF00
:020000040030CA
:0E00000000085E3CFFD381FF0FC00FE00F40F1
:00000001FF
