:020000040000FA
:040000001BEF00F002
:060008003A822DEF04F026
:100018003A80E0CF60F0F0A014EF00F016EF00F0A7
:1000280017EF00F0F09060C0E0FF3A90100083EF07
:1000380008F01250800B1B6E12501224216E11AE64
:1000480028EF00F02AEF00F02BEF00F0218021507C
:10005800D8B431EF00F033EF00F046EF00F021287C
:10006800D8A439EF00F03BEF00F043EF00F0000EAA
:100078000F6E000E106E000E116E000E126E118EB5
:100088004EEF00F0000E0F6E000E106E000E116E97
:10009800000E126E1650800B1B1A16501624206E76
:1000A80015AE59EF00F05BEF00F05CEF00F0208038
:1000B8002050D8B462EF00F064EF00F077EF00F062
:1000C8002028D8A46AEF00F06CEF00F074EF00F07D
:1000D800000E136E000E146E000E156E000E166ED6
:1000E800158E7FEF00F0000E136E000E146E000EDA
:1000F800156E000E166E2050D8B485EF00F087EF0D
:1001080000F08FEF00F02150D8A48DEF00F08FEFB2
:1001180000F099EF00F0000E0F6E000E106E000E4A
:10012800116E000E126E31EF02F015500F02F3CF70
:1001380026F0F4CF27F026501C6E1D6A1E6A1F6A2F
:100148002750226E236A246A256A14501002F3CFBE
:1001580026F0F4CF27F026501C26000E1D221E2262
:100168001F2227502226000E232224222522135044
:100178001102F3CF26F0F4CF27F026501C26000EEC
:100188001D221E221F2227502226000E232224224F
:1001980025221EC01FF01DC01EF01CC01DF01C6AC9
:1001A80013501002F3CF26F0F4CF27F026501C2668
:1001B80027501D22000E1E22000E1F2214500F026F
:1001C800F3CF26F0F4CF27F026501C2627501D2207
:1001D800000E1E22000E1F221EC01FF01DC01EF0A2
:1001E8001CC01DF01C6A13500F02F3CF26F0F4CF89
:1001F80027F026501C2627501D22000E1E22000E16
:100208001F2215501002F3CF26F0F4CF27F0265006
:10021800222627502322000E2422000E25221450C5
:100228001102F3CF26F0F4CF27F0265022262750CC
:100238002322000E2422000E252215501102F3CF8E
:1002480026F0F4CF27F02650176E2750186E196A3B
:100258001A6A19C01AF018C019F017C018F0176AEE
:100268001750222618502322195024221A502522CA
:100278001CC017F01DC018F01EC019F01FC01AF0DE
:10028800190E4CEF01F0D8901A3219321832173281
:10029800E82E47EF01F01750222618502322195054
:1002A80024221A5025221EC01FF01DC01EF01CC09B
:1002B8001DF01C6A205021C017F0186A1726000E7E
:1002C8001822820E1724266EFF0E1820276E82EF42
:1002D80001F0D89022362336243625361FAE77EF24
:1002E80001F079EF01F07AEF01F02280D8901C3606
:1002F8001D361E361F362606D8A0270624AE87EFE1
:1003080001F089EF01F06DEF01F0000E206E1FAED5
:1003180090EF01F092EF01F0B6EF01F0FF0E1C1420
:10032800176EFF0E1D14186EFF0E1E14196E7F0E29
:100338001F141A6E1750181019101A10D8B4A7EFF6
:1003480001F0A9EF01F0ADEF01F0010E206EB6EF5C
:1003580001F022A0B2EF01F0B4EF01F0B6EF01F026
:10036800A9EF01F02050D8B4BCEF01F0BEEF01F0C6
:10037800E2EF01F0010E2226000E2322242225227C
:1003880025A0C9EF01F0CBEF01F0E2EF01F022C0A8
:1003980017F023C018F024C019F025C01AF01A3439
:1003A8001A3219321832173217C022F018C023F047
:1003B80019C024F01AC025F0264A272A27BEEDEFD7
:1003C80001F0275008E12628D8A0EDEF01F0EFEF63
:1003D80001F0F9EF01F0000E226E000E236E800E80
:1003E800246E7F0E256E27EF02F027BE06EF02F07F
:1003F800275006E12604D8B004EF02F006EF02F019
:1004080012EF02F0000E226E000E236E000E246E14
:10041800000E256E000E1B6E27EF02F026C021F09D
:10042800FF0E2216FF0E23167F0E2416000E251629
:1004380021A021EF02F023EF02F024EF02F0248E36
:10044800D8902130256E1B50251222C00FF023C0F2
:1004580010F024C011F025C012F012009492000E82
:100468000F015D6F000E0001776F010E766F000EB1
:100478007A6F090E7B6F3D0E7C6F000E7D6F7AC020
:1004880061F07BC062F07CC063F07DC064F070C036
:1004980065F071C066F0676B686BCBEC06F061C005
:1004A8007AF062C07BF063C07CF064C07DF07AC0F3
:1004B80072F07BC073F07CC074F07DC075F0030EE1
:1004C8006CEF02F00001D8907533743373337233D4
:1004D800E82E66EF02F072C07AF073C07BF074C049
:1004E8007CF075C07DF0000EBA6EA5EF02F076C004
:1004F80072F077C073F0D89072377337D89072372C
:10050800733772C076F073C077F0BA2A7AC072F087
:100518007BC073F07CC074F07DC075F0030E9AEF59
:1005280002F0D8907533743373337233E82E95EF35
:1005380002F072C07AF073C07BF074C07CF075C0B2
:100548007DF07D517C1108E17A05010E7B59D8B008
:10055800B0EF02F0B2EF02F07BEF02F07A07000E84
:100568007B5B7C5B7D5B7AC0BBFF7AC07EF07BC027
:100578007FF07CC080F07DC081F0010E7E27000EE8
:100588007F23802381236EC061F06FC062F0636BAC
:10059800646B7EC065F07FC066F080C067F081C084
:1005A80068F0F5EC07F061C07EF062C07FF063C0D0
:1005B80080F064C081F07EC072F07FC073F080C0AC
:1005C80074F081C075F0020ED8900001723773374D
:1005D80074377537E82EE8EF02F072C07EF073C00A
:1005E8007FF074C080F075C081F07EC061F07FC07C
:1005F80062F080C063F081C064F0640E656F000E25
:10060800666F000E676F000E686FCBEC06F061C076
:100618007EF062C07FF063C080F064C081F07EC06D
:1006280078F07FC079F0030E00017815786F796B48
:1006380078C072F079C073F0723B733BF00E731799
:1006480072510F0B7313F00E721772C078F073C0EB
:1006580079F00C0E976E97507811976E7EC072F0F5
:100668007FC073F080C074F081C075F0030E42EF54
:1006780003F0D8907533743373337233E82E3DEF3B
:1006880003F072C07EF073C07FF074C080F075C054
:1006980081F07EC090FFBA84000EBC6E1200096E15
:1006A8000950D8B45AEF03F05CEF03F07EEF03F083
:1006B80004BE63EF03F061EF03F07EEF03F001C0C7
:1006C80005F002C006F003C007F004C008F0051EDC
:1006D800061E071E081E052A000E062207220822EB
:1006E80005C00BF006C00CF007C00DF008C00EF0F6
:1006F80086EF03F001C00BF002C00CF003C00DF050
:1007080004C00EF00150021003100410D8A48FEF9B
:1007180003F091EF03F09BEF03F0000E016E000E63
:10072800026E000E036E000E046E2CEF04F0960E9F
:100738000A6EA5EF03F00A2AD8900E320D320C3259
:100748000B32000E0B14056E000E0C14066E000E14
:100758000D14076EFE0E0E14086E055006100710D5
:100768000810D8A4BAEF03F0BCEF03F09FEF03F032
:10077800CAEF03F00A2A010E0B26000E0C220D22E6
:100788000E22D8900E320D320C320B32000E0B14A2
:10079800056E000E0C14066E000E0D14076EFF0E8B
:1007A8000E14086E0550061007100810D8A4DFEFC5
:1007B80003F0E1EF03F0BEEF03F0E9EF03F00A0600
:1007C800D8900B360C360D360E360DBEEEEF03F014
:1007D800F0EF03F0F8EF03F0020E0A60F6EF03F013
:1007E800F8EF03F0E3EF03F00AB0FDEF03F0FFEFDB
:1007F80003F000EF04F00D9ED8900A320AC005F00D
:10080800066A076A086A05C008F0076A066A056A80
:1008180005500B1206500C1207500D1208500E12FC
:100828000950D8B41AEF04F01CEF04F024EF04F0D8
:1008380004BE23EF04F021EF04F024EF04F00E8E41
:100848000BC001F00CC002F00DC003F00EC004F0A4
:100858001200F3CF2AF0F4CF2BF0000E356E000E05
:10086800346E010E3424346E000E3520356EF2A23B
:1008780040EF04F042EF04F0CFEF04F0010E38240B
:10088800386E000E3920396E020E38183910D8A487
:1008980050EF04F052EF04F064EF04F0000E026E23
:1008A800000E016E020E036ED5EC08F0000E026E0B
:1008B800000E016EFBEC08F0286E2850366E376A81
:1008C800000E336E000E326E8A84000E0001966FA1
:1008D800000E956F000E806E000E816E000E026E87
:1008E800050E016E6CEC07F001C030F002C031F06B
:1008F80030C001F031C002F0000E02BEFF0E036EE0
:10090800046E010E53EC03F001C00FF002C010F0AA
:1009180003C011F004C012F00A0E136E280E146EF4
:10092800A00E156E3B0E166E1DEC00F0820E286EA2
:10093800DE0EE82EFED7282EFCD7020E361837100A
:10094800D8A4A9EF04F0ABEF04F0AEEF04F0FF0079
:10095800C6EF04F081A0B3EF04F0B5EF04F0C6EFE2
:1009680004F0030E296E8A0E286E560EE82EFED766
:10097800282EFCD7292EFAD7000E336E010E326EC0
:100988008A94F29232503310D8B4CDEF04F0CFEFFE
:1009980004F048EF04F02BC0F4FF2AC0F3FF3A92AA
:1009A8001100000161056211D8A4DDEF04F0DFEF4A
:1009B80004F0E3EF04F07E0E806E65EF05F0020EA2
:1009C80061196211D8A4EBEF04F0EDEF04F0F1EF38
:1009D80004F0300E806E65EF05F0030E61196211A8
:1009E800D8A4F9EF04F0FBEF04F0FFEF04F06D0E6C
:1009F800806E65EF05F0040E61196211D8A407EF47
:100A080005F009EF05F00DEF05F0790E806E65EF42
:100A180005F0050E61196211D8A415EF05F017EF5E
:100A280005F01BEF05F0330E806E65EF05F0060E3E
:100A380061196211D8A423EF05F025EF05F029EF1D
:100A480005F05B0E806E65EF05F0070E6119621107
:100A5800D8A431EF05F033EF05F037EF05F05F0E5E
:100A6800806E65EF05F0080E61196211D8A43FEF9A
:100A780005F041EF05F045EF05F0700E806E65EF6B
:100A880005F0090E61196211D8A44DEF05F04FEF7A
:100A980005F053EF05F07F0E806E65EF05F00A0E46
:100AA80061196211D8A45BEF05F05DEF05F065EF01
:100AB80005F0730E806E000E926F0A0E916F65EF4F
:100AC80005F01200000161056211D8A46EEF05F06F
:100AD80070EF05F078EF05F0300E806E000E946F21
:100AE800010E936FF6EF05F0020E61196211D8A49A
:100AF80080EF05F082EF05F086EF05F06D0E806E51
:100B0800F6EF05F0030E61196211D8A48EEF05F017
:100B180090EF05F094EF05F0790E806EF6EF05F092
:100B2800040E61196211D8A49CEF05F09EEF05F040
:100B3800A2EF05F0330E806EF6EF05F0050E611991
:100B48006211D8A4AAEF05F0ACEF05F0B0EF05F0FC
:100B58005B0E806EF6EF05F0060E61196211D8A4DF
:100B6800B8EF05F0BAEF05F0BEEF05F05F0E806E46
:100B7800F6EF05F0070E61196211D8A4C6EF05F06B
:100B8800C8EF05F0CCEF05F0700E806EF6EF05F0BB
:100B9800080E61196211D8A4D4EF05F0D6EF05F05C
:100BA800DAEF05F07F0E806EF6EF05F0090E611999
:100BB8006211D8A4E2EF05F0E4EF05F0E8EF05F0E4
:100BC800730E806EF6EF05F00A0E61196211D8A453
:100BD800F0EF05F0F2EF05F0F6EF05F07E0E806E0F
:100BE800F6EF05F01200000E00018F6F000E8E6FF9
:100BF800000E8D6F000E8C6F8EC06EF08FC06FF080
:100C080088C070F089C071F032EC02F08AC061F0DF
:100C18008BC062F0A1EC08F0050E00018E258E6FE6
:100C2800000E8F218F6F8EC068F08FC069F02BEC9B
:100C380008F000018C4B8D2B8DBF2CEF06F08D51E9
:100C480009E1140E8C5DD8A02CEF06F02EEF06F00B
:100C580000EF06F0000E8F6F690E8E6F000E806E2B
:100C6800000E8D6F000E8C6FFB0E8E258E6FFF0EA3
:100C78008F218F6F8EC06EF08FC06FF088C070F0BC
:100C880089C071F032EC02F08AC061F08BC062F06A
:100C9800A1EC08F08EC082F08FC083F068EC06F0FB
:100CA80000018C4B8D2B8DBF63EF06F08D5109E150
:100CB800150E8C5DD8A063EF06F065EF06F038EFEF
:100CC80006F0000E806E120082C061F083C062F0F0
:100CD800000E0001646F050E636FBAEC07F061C087
:100CE80084F062C085F0010E00018415866F876B61
:100CF800140E84198511D8A484EF06F086EF06F047
:100D08009FEF06F086518711D8A48DEF06F08FEF7C
:100D180006F09FEF06F07E0E806EF80E816E000ED4
:100D28006F6F640E6E6F030E716FE80E706F32ECAA
:100D380002F0CAEF06F0140E84198511D8B4A7EF93
:100D480006F0A9EF06F0BFEF06F086058711D8A4D4
:100D5800B0EF06F0B2EF06F0BFEF06F0F00E816ECE
:100D68009107D8A0920791C061F092C062F066EC3A
:100D780005F0CAEF06F086518711D8A4C6EF06F031
:100D8800C8EF06F0CAEF06F0000E816E1200000EE2
:100D98000001696F000E6A6F000E6B6F000E6C6FBA
:100DA8006551661167116811D8B4DDEF06F0DFEF01
:100DB80006F015EF07F0010E6D6FE9EF06F0D89019
:100DC80065376637673768376D2B68AFEEEF06F023
:100DD800F0EF06F0E3EF06F0D89069376A376B3723
:100DE8006C376551615D6651625967516359685145
:100DF8006459D8A002EF07F004EF07F00DEF07F0F1
:100E08006551615F6651625B6751635B6851645B02
:100E18006981D89068336733663365336D2FF0EF97
:100E280006F069C061F06AC062F06BC063F06CC024
:100E380064F01200F288F086F19CF19AD08EF28E5E
:100E4800F28C60EC08F0EBEC08F0000E0001626F29
:100E5800000E616F000E636FBFEC08F0000E00011A
:100E6800626F000E616FF4EC08F00001906F905112
:100E7800366E376A38043910D8A445EF07F047EFC3
:100E880007F054EF07F0030E0001896FE80E886F32
:100E980095C08AF096C08BF0F7EC05F03EEF07F0AE
:100EA80038503910D8A45BEF07F05DEF07F03EEF3C
:100EB80007F0030E0001896FE80E886F000E8B6F34
:100EC800000E8A6FF7EC05F03EEF07F01BEF00F01D
:100ED80001C003F0D8900336D89003363C0E0316B1
:100EE800C250C30B0310C26EC2B27DEF07F081EF90
:100EF80007F0036A032A82EF07F0036A010E046E03
:100F0800032A89EF07F0D8900436032E87EF07F0FD
:100F1800C2B091EF07F095EF07F0056A052A96EF42
:100F280007F0056A010E066E052A9DEF07F0D890B6
:100F38000636052E9BEF07F006500410C212C2B207
:100F4800A8EF07F0AAEF07F0A3EF07F0C350C4CF4C
:100F580003F0046A03C004F0036A0310076E045028
:100F6800086E07C001F008C002F01200000E000170
:100F7800666F000E656F63516411D8B4C6EF07F051
:100F8800C8EF07F0F0EF07F0010E676FD0EF07F03A
:100F9800D89063376437672B64AFD5EF07F0D7EF86
:100FA80007F0CCEF07F0D890653766376351615D7D
:100FB80064516259D8A0E3EF07F0E5EF07F0EAEFD4
:100FC80007F06351615F6451625B6581D890643357
:100FD8006333672FD7EF07F065C061F066C062F032
:100FE8001200000E0001696F000E6A6F000E6B6F31
:100FF800000E6C6F61A103EF08F005EF08F00DEF2C
:1010080008F06551692766516A2367516B23685157
:101018006C23D8906537663767376837D89064335C
:101028006333623361336151621163116411D8A46F
:1010380020EF08F022EF08F0FEEF07F069C061F03A
:101048006AC062F06BC063F06CC064F0120068C0E4
:1010580061F069C062F0000E0001646F050E636FF5
:10106800BAEC07F061C06AF062C06BF0010E0001D3
:101078006A156C6F6D6B6C056D11D8A446EF08F09E
:1010880048EF08F04CEF08F0F00E816E5FEF08F0C3
:101098006C516D11D8A453EF08F055EF08F05FEFCD
:1010A80008F0000E816E934B942B93C061F094C0AE
:1010B80062F0D5EC04F01200570ED36E000E826E6B
:1010C800000E946E000E806E000E896E000E0F01E9
:1010D8005B6F000E926E000E846E000E8D6E000E19
:1010E8005F6F000E966E000E816E000E8A6E000E07
:1010F8005C6F000E936E000E836E8D901200040ECE
:10110800F66E120EF76E000EF86E00EE91F010EE0D
:1011180004F00900F5CFEEFFE550E150FAE10001D7
:10112800966B956B396A386A376A366A3A903A929A
:10113800000EF86E00011EEF07F0B4EF08F0060E7F
:101148000001646F130E636FAD0EE82EFED7632F98
:10115800FCD7642FFAD700D000016107D8A0620736
:10116800000161516211D8A4BCEF08F0BEEF08F08D
:10117800A3EF08F0120061C0A9FF63C0A8FFA69EF4
:10118800A69CA684550EA76EAA0EA76EA682A1A835
:10119800D0EF08F0D2EF08F0CBEF08F0A198A694B2
:1011A800120001C0A9FF03C0A8FFA69EA69CA684A2
:1011B800550EA76EAA0EA76EA682A1A8E6EF08F0A4
:1011C800E8EF08F0E1EF08F0A198A69412000E0EDF
:1011D800C16E920EC06E000EC46E000EC36E120079
:1011E80061C0A9FFA69EA69CA650A850120001C0E7
:1011F800A9FFA69EA69CA650A85012000B000100AD
:020000040020DA
:08000000FFFFFFFFFFFFFFFF00
:020000040030CA
:0E00000000085E3CFFD381FF0FC00FE00F40F1
:00000001FF
